{
  "_format": "hh-sol-artifact-1",
  "contractName": "MySecret",
  "sourceName": "contracts/MySecret.sol",
  "abi": [
    {
      "inputs": [
        {
          "internalType": "string",
          "name": "_secret",
          "type": "string"
        }
      ],
      "stateMutability": "nonpayable",
      "type": "constructor"
    },
    {
      "inputs": [
        {
          "internalType": "string",
          "name": "_secret",
          "type": "string"
        }
      ],
      "name": "changeSecret",
      "outputs": [],
      "stateMutability": "nonpayable",
      "type": "function"
    },
    {
      "inputs": [],
      "name": "secret",
      "outputs": [
        {
          "internalType": "string",
          "name": "",
          "type": "string"
        }
      ],
      "stateMutability": "view",
      "type": "function"
    }
  ],
  "bytecode": "0x60806040523480156200001157600080fd5b5060405162000f0a38038062000f0a8339818101604052810190620000379190620002fe565b620000836040518060400160405280600781526020017f4c6f6767696e6700000000000000000000000000000000000000000000000000815250336200009c60201b620001161760201c565b80600090816200009491906200059a565b50506200074c565b6200013e8282604051602401620000b592919062000718565b6040516020818303038152906040527f319af333000000000000000000000000000000000000000000000000000000007bffffffffffffffffffffffffffffffffffffffffffffffffffffffff19166020820180517bffffffffffffffffffffffffffffffffffffffffffffffffffffffff83818316178352505050506200014260201b60201c565b5050565b60008151905060006a636f6e736f6c652e6c6f679050602083016000808483855afa5050505050565b6000604051905090565b600080fd5b600080fd5b600080fd5b600080fd5b6000601f19601f8301169050919050565b7f4e487b7100000000000000000000000000000000000000000000000000000000600052604160045260246000fd5b620001d48262000189565b810181811067ffffffffffffffff82111715620001f657620001f56200019a565b5b80604052505050565b60006200020b6200016b565b9050620002198282620001c9565b919050565b600067ffffffffffffffff8211156200023c576200023b6200019a565b5b620002478262000189565b9050602081019050919050565b60005b838110156200027457808201518184015260208101905062000257565b60008484015250505050565b60006200029762000291846200021e565b620001ff565b905082815260208101848484011115620002b657620002b562000184565b5b620002c384828562000254565b509392505050565b600082601f830112620002e357620002e26200017f565b5b8151620002f584826020860162000280565b91505092915050565b60006020828403121562000317576200031662000175565b5b600082015167ffffffffffffffff8111156200033857620003376200017a565b5b6200034684828501620002cb565b91505092915050565b600081519050919050565b7f4e487b7100000000000000000000000000000000000000000000000000000000600052602260045260246000fd5b60006002820490506001821680620003a257607f821691505b602082108103620003b857620003b76200035a565b5b50919050565b60008190508160005260206000209050919050565b60006020601f8301049050919050565b600082821b905092915050565b600060088302620004227fffffffffffffffffffffffffffffffffffffffffffffffffffffffffffffffff82620003e3565b6200042e8683620003e3565b95508019841693508086168417925050509392505050565b6000819050919050565b6000819050919050565b60006200047b620004756200046f8462000446565b62000450565b62000446565b9050919050565b6000819050919050565b62000497836200045a565b620004af620004a68262000482565b848454620003f0565b825550505050565b600090565b620004c6620004b7565b620004d38184846200048c565b505050565b5b81811015620004fb57620004ef600082620004bc565b600181019050620004d9565b5050565b601f8211156200054a576200051481620003be565b6200051f84620003d3565b810160208510156200052f578190505b620005476200053e85620003d3565b830182620004d8565b50505b505050565b600082821c905092915050565b60006200056f600019846008026200054f565b1980831691505092915050565b60006200058a83836200055c565b9150826002028217905092915050565b620005a5826200034f565b67ffffffffffffffff811115620005c157620005c06200019a565b5b620005cd825462000389565b620005da828285620004ff565b600060209050601f831160018114620006125760008415620005fd578287015190505b6200060985826200057c565b86555062000679565b601f1984166200062286620003be565b60005b828110156200064c5784890151825560018201915060208501945060208101905062000625565b868310156200066c578489015162000668601f8916826200055c565b8355505b6001600288020188555050505b505050505050565b600082825260208201905092915050565b60006200069f826200034f565b620006ab818562000681565b9350620006bd81856020860162000254565b620006c88162000189565b840191505092915050565b600073ffffffffffffffffffffffffffffffffffffffff82169050919050565b60006200070082620006d3565b9050919050565b6200071281620006f3565b82525050565b6000604082019050818103600083015262000734818562000692565b905062000745602083018462000707565b9392505050565b6107ae806200075c6000396000f3fe608060405234801561001057600080fd5b50600436106100365760003560e01c806351d8ef431461003b578063d1efd30d14610057575b600080fd5b61005560048036038101906100509190610335565b610075565b005b61005f610088565b60405161006c91906103fd565b60405180910390f35b80600090816100849190610635565b5050565b600080546100959061044e565b80601f01602080910402602001604051908101604052809291908181526020018280546100c19061044e565b801561010e5780601f106100e35761010080835404028352916020019161010e565b820191906000526020600020905b8154815290600101906020018083116100f157829003601f168201915b505050505081565b6101ae828260405160240161012c929190610748565b6040516020818303038152906040527f319af333000000000000000000000000000000000000000000000000000000007bffffffffffffffffffffffffffffffffffffffffffffffffffffffff19166020820180517bffffffffffffffffffffffffffffffffffffffffffffffffffffffff83818316178352505050506101b2565b5050565b60008151905060006a636f6e736f6c652e6c6f679050602083016000808483855afa5050505050565b6000604051905090565b600080fd5b600080fd5b600080fd5b600080fd5b6000601f19601f8301169050919050565b7f4e487b7100000000000000000000000000000000000000000000000000000000600052604160045260246000fd5b610242826101f9565b810181811067ffffffffffffffff821117156102615761026061020a565b5b80604052505050565b60006102746101db565b90506102808282610239565b919050565b600067ffffffffffffffff8211156102a05761029f61020a565b5b6102a9826101f9565b9050602081019050919050565b82818337600083830152505050565b60006102d86102d384610285565b61026a565b9050828152602081018484840111156102f4576102f36101f4565b5b6102ff8482856102b6565b509392505050565b600082601f83011261031c5761031b6101ef565b5b813561032c8482602086016102c5565b91505092915050565b60006020828403121561034b5761034a6101e5565b5b600082013567ffffffffffffffff811115610369576103686101ea565b5b61037584828501610307565b91505092915050565b600081519050919050565b600082825260208201905092915050565b60005b838110156103b857808201518184015260208101905061039d565b60008484015250505050565b60006103cf8261037e565b6103d98185610389565b93506103e981856020860161039a565b6103f2816101f9565b840191505092915050565b6000602082019050818103600083015261041781846103c4565b905092915050565b7f4e487b7100000000000000000000000000000000000000000000000000000000600052602260045260246000fd5b6000600282049050600182168061046657607f821691505b6020821081036104795761047861041f565b5b50919050565b60008190508160005260206000209050919050565b60006020601f8301049050919050565b600082821b905092915050565b6000600883026104e17fffffffffffffffffffffffffffffffffffffffffffffffffffffffffffffffff826104a4565b6104eb86836104a4565b95508019841693508086168417925050509392505050565b6000819050919050565b6000819050919050565b600061053261052d61052884610503565b61050d565b610503565b9050919050565b6000819050919050565b61054c83610517565b61056061055882610539565b8484546104b1565b825550505050565b600090565b610575610568565b610580818484610543565b505050565b5b818110156105a45761059960008261056d565b600181019050610586565b5050565b601f8211156105e9576105ba8161047f565b6105c384610494565b810160208510156105d2578190505b6105e66105de85610494565b830182610585565b50505b505050565b600082821c905092915050565b600061060c600019846008026105ee565b1980831691505092915050565b600061062583836105fb565b9150826002028217905092915050565b61063e8261037e565b67ffffffffffffffff8111156106575761065661020a565b5b610661825461044e565b61066c8282856105a8565b600060209050601f83116001811461069f576000841561068d578287015190505b6106978582610619565b8655506106ff565b601f1984166106ad8661047f565b60005b828110156106d5578489015182556001820191506020850194506020810190506106b0565b868310156106f257848901516106ee601f8916826105fb565b8355505b6001600288020188555050505b505050505050565b600073ffffffffffffffffffffffffffffffffffffffff82169050919050565b600061073282610707565b9050919050565b61074281610727565b82525050565b6000604082019050818103600083015261076281856103c4565b90506107716020830184610739565b939250505056fea2646970667358221220a3da66341450399cce6c09183d2473b732cef86abaa0bb8e6e91e1b30d936dd664736f6c63430008110033",
  "linkReferences": {},
  "deployedLinkReferences": {}
}